{
  "abi": [
    {
      "inputs": [
        {
          "internalType": "address",
          "name": "_owner",
          "type": "address"
        },
        {
          "internalType": "string",
          "name": "_name",
          "type": "string"
        },
        {
          "internalType": "string",
          "name": "_symbol",
          "type": "string"
        },
        {
          "internalType": "string",
          "name": "_baseURI",
          "type": "string"
        }
      ],
      "stateMutability": "nonpayable",
      "type": "constructor"
    },
    {
      "inputs": [],
      "name": "NonMatchingArgumentLengths",
      "type": "error"
    },
    {
      "inputs": [],
      "name": "OnlyAuthorizedMinter",
      "type": "error"
    },
    {
      "anonymous": false,
      "inputs": [
        {
          "indexed": true,
          "internalType": "address",
          "name": "owner",
          "type": "address"
        },
        {
          "indexed": true,
          "internalType": "address",
          "name": "approved",
          "type": "address"
        },
        {
          "indexed": true,
          "internalType": "uint256",
          "name": "tokenId",
          "type": "uint256"
        }
      ],
      "name": "Approval",
      "type": "event"
    },
    {
      "anonymous": false,
      "inputs": [
        {
          "indexed": true,
          "internalType": "address",
          "name": "owner",
          "type": "address"
        },
        {
          "indexed": true,
          "internalType": "address",
          "name": "operator",
          "type": "address"
        },
        {
          "indexed": false,
          "internalType": "bool",
          "name": "approved",
          "type": "bool"
        }
      ],
      "name": "ApprovalForAll",
      "type": "event"
    },
    {
      "anonymous": false,
      "inputs": [
        {
          "indexed": false,
          "internalType": "string",
          "name": "prevURI",
          "type": "string"
        },
        {
          "indexed": false,
          "internalType": "string",
          "name": "newURI",
          "type": "string"
        }
      ],
      "name": "BaseTokenURIChange",
      "type": "event"
    },
    {
      "anonymous": false,
      "inputs": [
        {
          "indexed": true,
          "internalType": "address",
          "name": "account",
          "type": "address"
        },
        {
          "indexed": false,
          "internalType": "bool",
          "name": "trusted",
          "type": "bool"
        }
      ],
      "name": "MinterPrivilegesChange",
      "type": "event"
    },
    {
      "anonymous": false,
      "inputs": [
        {
          "indexed": false,
          "internalType": "uint256",
          "name": "prevId",
          "type": "uint256"
        },
        {
          "indexed": false,
          "internalType": "uint256",
          "name": "newId",
          "type": "uint256"
        }
      ],
      "name": "NextTokenIdChange",
      "type": "event"
    },
    {
      "anonymous": false,
      "inputs": [
        {
          "indexed": true,
          "internalType": "address",
          "name": "previousOwner",
          "type": "address"
        },
        {
          "indexed": true,
          "internalType": "address",
          "name": "newOwner",
          "type": "address"
        }
      ],
      "name": "OwnershipTransferred",
      "type": "event"
    },
    {
      "anonymous": false,
      "inputs": [
        {
          "indexed": true,
          "internalType": "address",
          "name": "from",
          "type": "address"
        },
        {
          "indexed": true,
          "internalType": "address",
          "name": "to",
          "type": "address"
        },
        {
          "indexed": true,
          "internalType": "uint256",
          "name": "tokenId",
          "type": "uint256"
        }
      ],
      "name": "Transfer",
      "type": "event"
    },
    {
      "inputs": [
        {
          "internalType": "address",
          "name": "to",
          "type": "address"
        },
        {
          "internalType": "uint256",
          "name": "tokenId",
          "type": "uint256"
        }
      ],
      "name": "approve",
      "outputs": [],
      "stateMutability": "nonpayable",
      "type": "function"
    },
    {
      "inputs": [
        {
          "internalType": "address",
          "name": "owner",
          "type": "address"
        }
      ],
      "name": "balanceOf",
      "outputs": [
        {
          "internalType": "uint256",
          "name": "",
          "type": "uint256"
        }
      ],
      "stateMutability": "view",
      "type": "function"
    },
    {
      "inputs": [],
      "name": "baseTokenURI",
      "outputs": [
        {
          "internalType": "string",
          "name": "",
          "type": "string"
        }
      ],
      "stateMutability": "view",
      "type": "function"
    },
    {
      "inputs": [
        {
          "internalType": "uint256",
          "name": "tokenId",
          "type": "uint256"
        }
      ],
      "name": "burn",
      "outputs": [],
      "stateMutability": "nonpayable",
      "type": "function"
    },
    {
      "inputs": [],
      "name": "currentTokenId",
      "outputs": [
        {
          "internalType": "uint256",
          "name": "",
          "type": "uint256"
        }
      ],
      "stateMutability": "view",
      "type": "function"
    },
    {
      "inputs": [
        {
          "internalType": "uint256",
          "name": "tokenId",
          "type": "uint256"
        }
      ],
      "name": "exists",
      "outputs": [
        {
          "internalType": "bool",
          "name": "",
          "type": "bool"
        }
      ],
      "stateMutability": "view",
      "type": "function"
    },
    {
      "inputs": [
        {
          "internalType": "uint256",
          "name": "tokenId",
          "type": "uint256"
        }
      ],
      "name": "getApproved",
      "outputs": [
        {
          "internalType": "address",
          "name": "",
          "type": "address"
        }
      ],
      "stateMutability": "view",
      "type": "function"
    },
    {
      "inputs": [
        {
          "internalType": "address",
          "name": "owner",
          "type": "address"
        },
        {
          "internalType": "address",
          "name": "operator",
          "type": "address"
        }
      ],
      "name": "isApprovedForAll",
      "outputs": [
        {
          "internalType": "bool",
          "name": "",
          "type": "bool"
        }
      ],
      "stateMutability": "view",
      "type": "function"
    },
    {
      "inputs": [
        {
          "internalType": "address",
          "name": "account",
          "type": "address"
        }
      ],
      "name": "isMinter",
      "outputs": [
        {
          "internalType": "bool",
          "name": "",
          "type": "bool"
        }
      ],
      "stateMutability": "view",
      "type": "function"
    },
    {
      "inputs": [
        {
          "internalType": "address",
          "name": "to",
          "type": "address"
        },
        {
          "internalType": "uint256",
          "name": "tokenId",
          "type": "uint256"
        }
      ],
      "name": "mintById",
      "outputs": [],
      "stateMutability": "nonpayable",
      "type": "function"
    },
    {
      "inputs": [
        {
          "internalType": "address[]",
          "name": "recipients",
          "type": "address[]"
        },
        {
          "internalType": "uint256[]",
          "name": "tokenCounts",
          "type": "uint256[]"
        }
      ],
      "name": "mintMany",
      "outputs": [],
      "stateMutability": "nonpayable",
      "type": "function"
    },
    {
      "inputs": [
        {
          "internalType": "address[]",
          "name": "recipients",
          "type": "address[]"
        },
        {
          "internalType": "uint256[][]",
          "name": "tokenIds",
          "type": "uint256[][]"
        }
      ],
      "name": "mintManyByIds",
      "outputs": [],
      "stateMutability": "nonpayable",
      "type": "function"
    },
    {
      "inputs": [
        {
          "internalType": "address",
          "name": "to",
          "type": "address"
        }
      ],
      "name": "mintTo",
      "outputs": [
        {
          "internalType": "uint256",
          "name": "tokenId",
          "type": "uint256"
        }
      ],
      "stateMutability": "nonpayable",
      "type": "function"
    },
    {
      "inputs": [],
      "name": "name",
      "outputs": [
        {
          "internalType": "string",
          "name": "",
          "type": "string"
        }
      ],
      "stateMutability": "view",
      "type": "function"
    },
    {
      "inputs": [],
      "name": "nextTokenId",
      "outputs": [
        {
          "internalType": "uint256",
          "name": "",
          "type": "uint256"
        }
      ],
      "stateMutability": "view",
      "type": "function"
    },
    {
      "inputs": [],
      "name": "owner",
      "outputs": [
        {
          "internalType": "address",
          "name": "",
          "type": "address"
        }
      ],
      "stateMutability": "view",
      "type": "function"
    },
    {
      "inputs": [
        {
          "internalType": "uint256",
          "name": "tokenId",
          "type": "uint256"
        }
      ],
      "name": "ownerOf",
      "outputs": [
        {
          "internalType": "address",
          "name": "",
          "type": "address"
        }
      ],
      "stateMutability": "view",
      "type": "function"
    },
    {
      "inputs": [],
      "name": "renounceOwnership",
      "outputs": [],
      "stateMutability": "nonpayable",
      "type": "function"
    },
    {
      "inputs": [
        {
          "internalType": "address",
          "name": "from",
          "type": "address"
        },
        {
          "internalType": "address",
          "name": "to",
          "type": "address"
        },
        {
          "internalType": "uint256",
          "name": "tokenId",
          "type": "uint256"
        }
      ],
      "name": "safeTransferFrom",
      "outputs": [],
      "stateMutability": "nonpayable",
      "type": "function"
    },
    {
      "inputs": [
        {
          "internalType": "address",
          "name": "from",
          "type": "address"
        },
        {
          "internalType": "address",
          "name": "to",
          "type": "address"
        },
        {
          "internalType": "uint256",
          "name": "tokenId",
          "type": "uint256"
        },
        {
          "internalType": "bytes",
          "name": "data",
          "type": "bytes"
        }
      ],
      "name": "safeTransferFrom",
      "outputs": [],
      "stateMutability": "nonpayable",
      "type": "function"
    },
    {
      "inputs": [
        {
          "internalType": "address",
          "name": "operator",
          "type": "address"
        },
        {
          "internalType": "bool",
          "name": "approved",
          "type": "bool"
        }
      ],
      "name": "setApprovalForAll",
      "outputs": [],
      "stateMutability": "nonpayable",
      "type": "function"
    },
    {
      "inputs": [
        {
          "internalType": "string",
          "name": "uri",
          "type": "string"
        }
      ],
      "name": "setBaseTokenURI",
      "outputs": [],
      "stateMutability": "nonpayable",
      "type": "function"
    },
    {
      "inputs": [
        {
          "internalType": "address",
          "name": "account",
          "type": "address"
        },
        {
          "internalType": "bool",
          "name": "trusted",
          "type": "bool"
        }
      ],
      "name": "setMinter",
      "outputs": [],
      "stateMutability": "nonpayable",
      "type": "function"
    },
    {
      "inputs": [
        {
          "internalType": "address[]",
          "name": "_minters",
          "type": "address[]"
        },
        {
          "internalType": "bool[]",
          "name": "trusted",
          "type": "bool[]"
        }
      ],
      "name": "setMinters",
      "outputs": [],
      "stateMutability": "nonpayable",
      "type": "function"
    },
    {
      "inputs": [
        {
          "internalType": "uint256",
          "name": "_nextTokenId",
          "type": "uint256"
        }
      ],
      "name": "setNextTokenId",
      "outputs": [],
      "stateMutability": "nonpayable",
      "type": "function"
    },
    {
      "inputs": [
        {
          "internalType": "bytes4",
          "name": "interfaceId",
          "type": "bytes4"
        }
      ],
      "name": "supportsInterface",
      "outputs": [
        {
          "internalType": "bool",
          "name": "",
          "type": "bool"
        }
      ],
      "stateMutability": "view",
      "type": "function"
    },
    {
      "inputs": [],
      "name": "symbol",
      "outputs": [
        {
          "internalType": "string",
          "name": "",
          "type": "string"
        }
      ],
      "stateMutability": "view",
      "type": "function"
    },
    {
      "inputs": [
        {
          "internalType": "uint256",
          "name": "index",
          "type": "uint256"
        }
      ],
      "name": "tokenByIndex",
      "outputs": [
        {
          "internalType": "uint256",
          "name": "",
          "type": "uint256"
        }
      ],
      "stateMutability": "view",
      "type": "function"
    },
    {
      "inputs": [
        {
          "internalType": "address",
          "name": "owner",
          "type": "address"
        },
        {
          "internalType": "uint256",
          "name": "index",
          "type": "uint256"
        }
      ],
      "name": "tokenOfOwnerByIndex",
      "outputs": [
        {
          "internalType": "uint256",
          "name": "",
          "type": "uint256"
        }
      ],
      "stateMutability": "view",
      "type": "function"
    },
    {
      "inputs": [
        {
          "internalType": "uint256",
          "name": "tokenId",
          "type": "uint256"
        }
      ],
      "name": "tokenURI",
      "outputs": [
        {
          "internalType": "string",
          "name": "",
          "type": "string"
        }
      ],
      "stateMutability": "view",
      "type": "function"
    },
    {
      "inputs": [],
      "name": "totalSupply",
      "outputs": [
        {
          "internalType": "uint256",
          "name": "",
          "type": "uint256"
        }
      ],
      "stateMutability": "view",
      "type": "function"
    },
    {
      "inputs": [
        {
          "internalType": "address",
          "name": "from",
          "type": "address"
        },
        {
          "internalType": "address",
          "name": "to",
          "type": "address"
        },
        {
          "internalType": "uint256",
          "name": "tokenId",
          "type": "uint256"
        }
      ],
      "name": "transferFrom",
      "outputs": [],
      "stateMutability": "nonpayable",
      "type": "function"
    },
    {
      "inputs": [
        {
          "internalType": "address",
          "name": "newOwner",
          "type": "address"
        }
      ],
      "name": "transferOwnership",
      "outputs": [],
      "stateMutability": "nonpayable",
      "type": "function"
    }
  ],
  "bytecode": {
    "object": "0x60806040523480156200001157600080fd5b5060405162002a3538038062002a358339810160408190526200003491620002c4565b8282818181600090805190602001906200005092919062000144565b5080516200006690600190602084019062000144565b50506001600b55506200007d91503390506200009d565b62000088846200009d565b6200009381620000ef565b50505050620004a5565b600d80546001600160a01b038381166001600160a01b0319831681179093556040519116919082907f8be0079c531659141344cd1fd0a4f28419497f9722a3daafe3b4186f6b6457e090600090a35050565b7fe6541a40e8e92ad433455f276ad6bf516aad2c3d96673a65bd3fe2fabb98cccb600a8260405162000123929190620003e0565b60405180910390a180516200014090600a90602084019062000144565b5050565b828054620001529062000376565b90600052602060002090601f016020900481019282620001765760008555620001c1565b82601f106200019157805160ff1916838001178555620001c1565b82800160010185558215620001c1579182015b82811115620001c1578251825591602001919060010190620001a4565b50620001cf929150620001d3565b5090565b5b80821115620001cf5760008155600101620001d4565b634e487b7160e01b600052604160045260246000fd5b60005b838110156200021d57818101518382015260200162000203565b838111156200022d576000848401525b50505050565b600082601f8301126200024557600080fd5b81516001600160401b0380821115620002625762000262620001ea565b604051601f8301601f19908116603f011681019082821181831017156200028d576200028d620001ea565b81604052838152866020858801011115620002a757600080fd5b620002ba84602083016020890162000200565b9695505050505050565b60008060008060808587031215620002db57600080fd5b84516001600160a01b0381168114620002f357600080fd5b60208601519094506001600160401b03808211156200031157600080fd5b6200031f8883890162000233565b945060408701519150808211156200033657600080fd5b620003448883890162000233565b935060608701519150808211156200035b57600080fd5b506200036a8782880162000233565b91505092959194509250565b600181811c908216806200038b57607f821691505b602082108103620003ac57634e487b7160e01b600052602260045260246000fd5b50919050565b60008151808452620003cc81602086016020860162000200565b601f01601f19169290920160200192915050565b60408152600080845481600182811c9150808316806200040157607f831692505b602080841082036200042157634e487b7160e01b86526022600452602486fd5b6040880184905260608801828015620004435760018114620004555762000482565b60ff1987168252828201975062000482565b60008c81526020902060005b878110156200047c5781548482015290860190840162000461565b83019850505b50508786038189015250505050506200049c8185620003b2565b95945050505050565b61258080620004b56000396000f3fe608060405234801561001057600080fd5b50600436106101fa5760003560e01c80634f6ccce71161011a57806395d89b41116100ad578063c87b56dd1161007c578063c87b56dd14610434578063cf456ae714610447578063d547cfb71461045a578063e985e9c514610462578063f2fde38b1461049e57600080fd5b806395d89b41146103da578063a22cb465146103e2578063aa271e1a146103f5578063b88d4fde1461042157600080fd5b8063755edd17116100e9578063755edd171461039a57806375794a3c146103ad57806383e3500f146103b65780638da5cb5b146103c957600080fd5b80634f6ccce7146103595780636352211e1461036c57806370a082311461037f578063715018a61461039257600080fd5b806323b872dd1161019257806341bceced1161016157806341bceced1461030d57806342842e0e1461032057806342966c68146103335780634f558e791461034657600080fd5b806323b872dd146102c15780632f745c59146102d457806330176e13146102e75780634029a3ce146102fa57600080fd5b8063095ea7b3116101ce578063095ea7b31461027e5780630f041ff61461029357806318160ddd146102a657806318e8aac2146102ae57600080fd5b80629a9b7b146101ff57806301ffc9a71461021b57806306fdde031461023e578063081812fc14610253575b600080fd5b610208600e5481565b6040519081526020015b60405180910390f35b61022e610229366004611c47565b6104b1565b6040519015158152602001610212565b6102466104c2565b6040516102129190611cc3565b610266610261366004611cd6565b610554565b6040516001600160a01b039091168152602001610212565b61029161028c366004611d06565b61057b565b005b6102916102a1366004611d06565b610695565b600854610208565b6102916102bc366004611e68565b6106d3565b6102916102cf366004611f3d565b6107b5565b6102086102e2366004611d06565b6107e7565b6102916102f5366004611fd1565b61087d565b61029161030836600461201a565b610891565b61029161031b36600461208e565b610940565b61029161032e366004611f3d565b610952565b610291610341366004611cd6565b61096d565b61022e610354366004611cd6565b61099b565b610208610367366004611cd6565b6109ba565b61026661037a366004611cd6565b610a4d565b61020861038d366004612150565b610aad565b610291610b33565b6102086103a8366004612150565b610b47565b610208600b5481565b6102916103c4366004611cd6565b610b85565b600d546001600160a01b0316610266565b610246610b96565b6102916103f036600461216b565b610ba5565b61022e610403366004612150565b6001600160a01b03166000908152600c602052604090205460ff1690565b61029161042f36600461219e565b610bb0565b610246610442366004611cd6565b610be8565b61029161045536600461216b565b610c1c565b610246610c2e565b61022e61047036600461221a565b6001600160a01b03918216600090815260056020908152604080832093909416825291909152205460ff1690565b6102916104ac366004612150565b610cbc565b60006104bc82610d32565b92915050565b6060600080546104d190612244565b80601f01602080910402602001604051908101604052809291908181526020018280546104fd90612244565b801561054a5780601f1061051f5761010080835404028352916020019161054a565b820191906000526020600020905b81548152906001019060200180831161052d57829003601f168201915b5050505050905090565b600061055f82610d3d565b506000908152600460205260409020546001600160a01b031690565b600061058682610a4d565b9050806001600160a01b0316836001600160a01b0316036105f85760405162461bcd60e51b815260206004820152602160248201527f4552433732313a20617070726f76616c20746f2063757272656e74206f776e656044820152603960f91b60648201526084015b60405180910390fd5b336001600160a01b038216148061061457506106148133610470565b6106865760405162461bcd60e51b815260206004820152603d60248201527f4552433732313a20617070726f76652063616c6c6572206973206e6f7420746f60448201527f6b656e206f776e6572206f7220617070726f76656420666f7220616c6c00000060648201526084016105ef565b6106908383610d9c565b505050565b336000908152600c602052604090205460ff166106c5576040516319564af960e21b815260040160405180910390fd5b6106cf8282610e0a565b5050565b336000908152600c602052604090205460ff16610703576040516319564af960e21b815260040160405180910390fd5b60005b82518110156106905760008282815181106107235761072361227e565b602002602001015151905060005b818110156107a05761078e85848151811061074e5761074e61227e565b60200260200101518585815181106107685761076861227e565b602002602001015183815181106107815761078161227e565b6020026020010151610e0a565b80610798816122aa565b915050610731565b505080806107ad906122aa565b915050610706565b6107c0335b82610e24565b6107dc5760405162461bcd60e51b81526004016105ef906122c3565b610690838383610ea3565b60006107f283610aad565b82106108545760405162461bcd60e51b815260206004820152602b60248201527f455243373231456e756d657261626c653a206f776e657220696e646578206f7560448201526a74206f6620626f756e647360a81b60648201526084016105ef565b506001600160a01b03919091166000908152600660209081526040808320938352929052205490565b610885611012565b61088e8161106c565b50565b336000908152600c602052604090205460ff166108c1576040516319564af960e21b815260040160405180910390fd5b60005b82518110156106905760008282815181106108e1576108e161227e565b6020026020010151905060005b8181101561092b5761091885848151811061090b5761090b61227e565b60200260200101516110b9565b5080610923816122aa565b9150506108ee565b50508080610938906122aa565b9150506108c4565b610948611012565b6106cf82826110e0565b61069083838360405180602001604052806000815250610bb0565b610976336107ba565b6109925760405162461bcd60e51b81526004016105ef906122c3565b61088e81611206565b6000818152600260205260408120546001600160a01b031615156104bc565b60006109c560085490565b8210610a285760405162461bcd60e51b815260206004820152602c60248201527f455243373231456e756d657261626c653a20676c6f62616c20696e646578206f60448201526b7574206f6620626f756e647360a01b60648201526084016105ef565b60088281548110610a3b57610a3b61227e565b90600052602060002001549050919050565b6000818152600260205260408120546001600160a01b0316806104bc5760405162461bcd60e51b8152602060048201526018602482015277115490cdcc8c4e881a5b9d985b1a59081d1bdad95b88125160421b60448201526064016105ef565b60006001600160a01b038216610b175760405162461bcd60e51b815260206004820152602960248201527f4552433732313a2061646472657373207a65726f206973206e6f7420612076616044820152683634b21037bbb732b960b91b60648201526084016105ef565b506001600160a01b031660009081526003602052604090205490565b610b3b611012565b610b4560006112a7565b565b336000908152600c602052604081205460ff16610b77576040516319564af960e21b815260040160405180910390fd5b6104bc826110b9565b919050565b610b8d611012565b61088e816112f9565b6060600180546104d190612244565b6106cf33838361133a565b610bba3383610e24565b610bd65760405162461bcd60e51b81526004016105ef906122c3565b610be284848484611408565b50505050565b6060600a610bf58361143b565b604051602001610c06929190612310565b6040516020818303038152906040529050919050565b610c24611012565b6106cf82826114ce565b600a8054610c3b90612244565b80601f0160208091040260200160405190810160405280929190818152602001828054610c6790612244565b8015610cb45780601f10610c8957610100808354040283529160200191610cb4565b820191906000526020600020905b815481529060010190602001808311610c9757829003601f168201915b505050505081565b610cc4611012565b6001600160a01b038116610d295760405162461bcd60e51b815260206004820152602660248201527f4f776e61626c653a206e6577206f776e657220697320746865207a65726f206160448201526564647265737360d01b60648201526084016105ef565b61088e816112a7565b60006104bc8261152d565b6000818152600260205260409020546001600160a01b031661088e5760405162461bcd60e51b8152602060048201526018602482015277115490cdcc8c4e881a5b9d985b1a59081d1bdad95b88125160421b60448201526064016105ef565b600081815260046020526040902080546001600160a01b0319166001600160a01b0384169081179091558190610dd182610a4d565b6001600160a01b03167f8c5be1e5ebec7d5bd14f71427d1e84f3dd0314c0f7b2291e5b200ac8c7c3b92560405160405180910390a45050565b6106cf828260405180602001604052806000815250611552565b600080610e3083610a4d565b9050806001600160a01b0316846001600160a01b03161480610e7757506001600160a01b0380821660009081526005602090815260408083209388168352929052205460ff165b80610e9b5750836001600160a01b0316610e9084610554565b6001600160a01b0316145b949350505050565b826001600160a01b0316610eb682610a4d565b6001600160a01b031614610edc5760405162461bcd60e51b81526004016105ef90612393565b6001600160a01b038216610f3e5760405162461bcd60e51b8152602060048201526024808201527f4552433732313a207472616e7366657220746f20746865207a65726f206164646044820152637265737360e01b60648201526084016105ef565b610f49838383611585565b826001600160a01b0316610f5c82610a4d565b6001600160a01b031614610f825760405162461bcd60e51b81526004016105ef90612393565b600081815260046020908152604080832080546001600160a01b03199081169091556001600160a01b0387811680865260038552838620805460001901905590871680865283862080546001019055868652600290945282852080549092168417909155905184937fddf252ad1be2c89b69c2b068fc378daa952ba7f163c4a11628f55a4df523b3ef91a4505050565b600d546001600160a01b03163314610b455760405162461bcd60e51b815260206004820181905260248201527f4f776e61626c653a2063616c6c6572206973206e6f7420746865206f776e657260448201526064016105ef565b7fe6541a40e8e92ad433455f276ad6bf516aad2c3d96673a65bd3fe2fabb98cccb600a8260405161109e9291906123d8565b60405180910390a180516106cf90600a906020840190611b98565b600b546110c68282610e0a565b600b80549060006110d6836122aa565b9190505550919050565b80518251146111025760405163e3dc84c960e01b815260040160405180910390fd5b60005b8251811015610690578181815181106111205761112061227e565b6020026020010151600c600085848151811061113e5761113e61227e565b60200260200101516001600160a01b03166001600160a01b0316815260200190815260200160002060006101000a81548160ff02191690831515021790555082818151811061118f5761118f61227e565b60200260200101516001600160a01b03167f6725be0f4bc4932d5a1c2dd36b287a38cf6f4c47b74e6ca6e7a8d1a2a327aa8b8383815181106111d3576111d361227e565b60200260200101516040516111ec911515815260200190565b60405180910390a2806111fe816122aa565b915050611105565b600061121182610a4d565b905061121f81600084611585565b61122882610a4d565b600083815260046020908152604080832080546001600160a01b03199081169091556001600160a01b0385168085526003845282852080546000190190558785526002909352818420805490911690555192935084927fddf252ad1be2c89b69c2b068fc378daa952ba7f163c4a11628f55a4df523b3ef908390a45050565b600d80546001600160a01b038381166001600160a01b0319831681179093556040519116919082907f8be0079c531659141344cd1fd0a4f28419497f9722a3daafe3b4186f6b6457e090600090a35050565b600b5460408051918252602082018390527f07305bd722f9b374de66c4ae521c8b9368d2a627736eefe0ccb30053a723dc04910160405180910390a1600b55565b816001600160a01b0316836001600160a01b03160361139b5760405162461bcd60e51b815260206004820152601960248201527f4552433732313a20617070726f766520746f2063616c6c65720000000000000060448201526064016105ef565b6001600160a01b03838116600081815260056020908152604080832094871680845294825291829020805460ff191686151590811790915591519182527f17307eab39ab6107e8899845ad3d59bd9653f200f220920489ca2b5937696c31910160405180910390a3505050565b611413848484610ea3565b61141f84848484611590565b610be25760405162461bcd60e51b81526004016105ef90612471565b6060600061144883611691565b600101905060008167ffffffffffffffff81111561146857611468611d30565b6040519080825280601f01601f191660200182016040528015611492576020820181803683370190505b5090508181016020015b600019016f181899199a1a9b1b9c1cb0b131b232b360811b600a86061a8153600a850494508461149c57509392505050565b6001600160a01b0382166000818152600c6020908152604091829020805460ff191685151590811790915591519182527f6725be0f4bc4932d5a1c2dd36b287a38cf6f4c47b74e6ca6e7a8d1a2a327aa8b910160405180910390a25050565b60006001600160e01b0319821663780e9d6360e01b14806104bc57506104bc82611769565b61155c83836117b9565b6115696000848484611590565b6106905760405162461bcd60e51b81526004016105ef90612471565b610690838383611950565b60006001600160a01b0384163b1561168657604051630a85bd0160e11b81526001600160a01b0385169063150b7a02906115d49033908990889088906004016124c3565b6020604051808303816000875af192505050801561160f575060408051601f3d908101601f1916820190925261160c91810190612500565b60015b61166c573d80801561163d576040519150601f19603f3d011682016040523d82523d6000602084013e611642565b606091505b5080516000036116645760405162461bcd60e51b81526004016105ef90612471565b805181602001fd5b6001600160e01b031916630a85bd0160e11b149050610e9b565b506001949350505050565b60008072184f03e93ff9f4daa797ed6e38ed64bf6a1f0160401b83106116d05772184f03e93ff9f4daa797ed6e38ed64bf6a1f0160401b830492506040015b6d04ee2d6d415b85acef810000000083106116fc576d04ee2d6d415b85acef8100000000830492506020015b662386f26fc10000831061171a57662386f26fc10000830492506010015b6305f5e1008310611732576305f5e100830492506008015b612710831061174657612710830492506004015b60648310611758576064830492506002015b600a83106104bc5760010192915050565b60006001600160e01b031982166380ac58cd60e01b148061179a57506001600160e01b03198216635b5e139f60e01b145b806104bc57506301ffc9a760e01b6001600160e01b03198316146104bc565b6001600160a01b03821661180f5760405162461bcd60e51b815260206004820181905260248201527f4552433732313a206d696e7420746f20746865207a65726f206164647265737360448201526064016105ef565b6000818152600260205260409020546001600160a01b0316156118745760405162461bcd60e51b815260206004820152601c60248201527f4552433732313a20746f6b656e20616c7265616479206d696e7465640000000060448201526064016105ef565b61188060008383611585565b6000818152600260205260409020546001600160a01b0316156118e55760405162461bcd60e51b815260206004820152601c60248201527f4552433732313a20746f6b656e20616c7265616479206d696e7465640000000060448201526064016105ef565b6001600160a01b038216600081815260036020908152604080832080546001019055848352600290915280822080546001600160a01b0319168417905551839291907fddf252ad1be2c89b69c2b068fc378daa952ba7f163c4a11628f55a4df523b3ef908290a45050565b6001600160a01b0383166119ab576119a681600880546000838152600960205260408120829055600182018355919091527ff3f7a9fe364faab93b216da50a3214154f22a0a2b415b23a84c8169e8b636ee30155565b6119ce565b816001600160a01b0316836001600160a01b0316146119ce576119ce8382611a08565b6001600160a01b0382166119e55761069081611aa5565b826001600160a01b0316826001600160a01b031614610690576106908282611b54565b60006001611a1584610aad565b611a1f919061251d565b600083815260076020526040902054909150808214611a72576001600160a01b03841660009081526006602090815260408083208584528252808320548484528184208190558352600790915290208190555b5060009182526007602090815260408084208490556001600160a01b039094168352600681528383209183525290812055565b600854600090611ab79060019061251d565b60008381526009602052604081205460088054939450909284908110611adf57611adf61227e565b906000526020600020015490508060088381548110611b0057611b0061227e565b6000918252602080832090910192909255828152600990915260408082208490558582528120556008805480611b3857611b38612534565b6001900381819060005260206000200160009055905550505050565b6000611b5f83610aad565b6001600160a01b039093166000908152600660209081526040808320868452825280832085905593825260079052919091209190915550565b828054611ba490612244565b90600052602060002090601f016020900481019282611bc65760008555611c0c565b82601f10611bdf57805160ff1916838001178555611c0c565b82800160010185558215611c0c579182015b82811115611c0c578251825591602001919060010190611bf1565b50611c18929150611c1c565b5090565b5b80821115611c185760008155600101611c1d565b6001600160e01b03198116811461088e57600080fd5b600060208284031215611c5957600080fd5b8135611c6481611c31565b9392505050565b60005b83811015611c86578181015183820152602001611c6e565b83811115610be25750506000910152565b60008151808452611caf816020860160208601611c6b565b601f01601f19169290920160200192915050565b602081526000611c646020830184611c97565b600060208284031215611ce857600080fd5b5035919050565b80356001600160a01b0381168114610b8057600080fd5b60008060408385031215611d1957600080fd5b611d2283611cef565b946020939093013593505050565b634e487b7160e01b600052604160045260246000fd5b604051601f8201601f1916810167ffffffffffffffff81118282101715611d6f57611d6f611d30565b604052919050565b600067ffffffffffffffff821115611d9157611d91611d30565b5060051b60200190565b600082601f830112611dac57600080fd5b81356020611dc1611dbc83611d77565b611d46565b82815260059290921b84018101918181019086841115611de057600080fd5b8286015b84811015611e0257611df581611cef565b8352918301918301611de4565b509695505050505050565b600082601f830112611e1e57600080fd5b81356020611e2e611dbc83611d77565b82815260059290921b84018101918181019086841115611e4d57600080fd5b8286015b84811015611e025780358352918301918301611e51565b60008060408385031215611e7b57600080fd5b823567ffffffffffffffff80821115611e9357600080fd5b611e9f86838701611d9b565b9350602091508185013581811115611eb657600080fd5b8501601f81018713611ec757600080fd5b8035611ed5611dbc82611d77565b81815260059190911b82018401908481019089831115611ef457600080fd5b8584015b83811015611f2c57803586811115611f105760008081fd5b611f1e8c8983890101611e0d565b845250918601918601611ef8565b508096505050505050509250929050565b600080600060608486031215611f5257600080fd5b611f5b84611cef565b9250611f6960208501611cef565b9150604084013590509250925092565b600067ffffffffffffffff831115611f9357611f93611d30565b611fa6601f8401601f1916602001611d46565b9050828152838383011115611fba57600080fd5b828260208301376000602084830101529392505050565b600060208284031215611fe357600080fd5b813567ffffffffffffffff811115611ffa57600080fd5b8201601f8101841361200b57600080fd5b610e9b84823560208401611f79565b6000806040838503121561202d57600080fd5b823567ffffffffffffffff8082111561204557600080fd5b61205186838701611d9b565b9350602085013591508082111561206757600080fd5b5061207485828601611e0d565b9150509250929050565b80358015158114610b8057600080fd5b600080604083850312156120a157600080fd5b823567ffffffffffffffff808211156120b957600080fd5b6120c586838701611d9b565b93506020915081850135818111156120dc57600080fd5b85019050601f810186136120ef57600080fd5b80356120fd611dbc82611d77565b81815260059190911b8201830190838101908883111561211c57600080fd5b928401925b82841015612141576121328461207e565b82529284019290840190612121565b80955050505050509250929050565b60006020828403121561216257600080fd5b611c6482611cef565b6000806040838503121561217e57600080fd5b61218783611cef565b91506121956020840161207e565b90509250929050565b600080600080608085870312156121b457600080fd5b6121bd85611cef565b93506121cb60208601611cef565b925060408501359150606085013567ffffffffffffffff8111156121ee57600080fd5b8501601f810187136121ff57600080fd5b61220e87823560208401611f79565b91505092959194509250565b6000806040838503121561222d57600080fd5b61223683611cef565b915061219560208401611cef565b600181811c9082168061225857607f821691505b60208210810361227857634e487b7160e01b600052602260045260246000fd5b50919050565b634e487b7160e01b600052603260045260246000fd5b634e487b7160e01b600052601160045260246000fd5b6000600182016122bc576122bc612294565b5060010190565b6020808252602d908201527f4552433732313a2063616c6c6572206973206e6f7420746f6b656e206f776e6560408201526c1c881bdc88185c1c1c9bdd9959609a1b606082015260800190565b600080845461231e81612244565b60018281168015612336576001811461234757612376565b60ff19841687528287019450612376565b8860005260208060002060005b8581101561236d5781548a820152908401908201612354565b50505082870194505b50505050835161238a818360208801611c6b565b01949350505050565b60208082526025908201527f4552433732313a207472616e736665722066726f6d20696e636f72726563742060408201526437bbb732b960d91b606082015260800190565b6040815260008084546123ea81612244565b806040860152606060018084166000811461240c576001811461242057612451565b60ff19851688840152608088019550612451565b8960005260208060002060005b868110156124485781548b820187015290840190820161242d565b8a018501975050505b505050505082810360208401526124688185611c97565b95945050505050565b60208082526032908201527f4552433732313a207472616e7366657220746f206e6f6e20455243373231526560408201527131b2b4bb32b91034b6b83632b6b2b73a32b960711b606082015260800190565b6001600160a01b03858116825284166020820152604081018390526080606082018190526000906124f690830184611c97565b9695505050505050565b60006020828403121561251257600080fd5b8151611c6481611c31565b60008282101561252f5761252f612294565b500390565b634e487b7160e01b600052603160045260246000fdfea2646970667358221220245f2336ce26cc8094433853f4ee88c55374f285f5e061cc493529c3c8e8921b64736f6c634300080d0033",
    "linkReferences": {}
  },
  "methodIdentifiers": {
    "approve(address,uint256)": "095ea7b3",
    "balanceOf(address)": "70a08231",
    "baseTokenURI()": "d547cfb7",
    "burn(uint256)": "42966c68",
    "currentTokenId()": "009a9b7b",
    "exists(uint256)": "4f558e79",
    "getApproved(uint256)": "081812fc",
    "isApprovedForAll(address,address)": "e985e9c5",
    "isMinter(address)": "aa271e1a",
    "mintById(address,uint256)": "0f041ff6",
    "mintMany(address[],uint256[])": "4029a3ce",
    "mintManyByIds(address[],uint256[][])": "18e8aac2",
    "mintTo(address)": "755edd17",
    "name()": "06fdde03",
    "nextTokenId()": "75794a3c",
    "owner()": "8da5cb5b",
    "ownerOf(uint256)": "6352211e",
    "renounceOwnership()": "715018a6",
    "safeTransferFrom(address,address,uint256)": "42842e0e",
    "safeTransferFrom(address,address,uint256,bytes)": "b88d4fde",
    "setApprovalForAll(address,bool)": "a22cb465",
    "setBaseTokenURI(string)": "30176e13",
    "setMinter(address,bool)": "cf456ae7",
    "setMinters(address[],bool[])": "41bceced",
    "setNextTokenId(uint256)": "83e3500f",
    "supportsInterface(bytes4)": "01ffc9a7",
    "symbol()": "95d89b41",
    "tokenByIndex(uint256)": "4f6ccce7",
    "tokenOfOwnerByIndex(address,uint256)": "2f745c59",
    "tokenURI(uint256)": "c87b56dd",
    "totalSupply()": "18160ddd",
    "transferFrom(address,address,uint256)": "23b872dd",
    "transferOwnership(address)": "f2fde38b"
  },
  "id": 21
}